:020000040800F2
:100000000000022069620008394B0008414B0008DB
:10001000494B0008514B0008594B000800000000F4
:10002000000000000000000000000000614B00081C
:100030006F4B0008000000007D4B00088B4B000850
:10004000B9620008B9620008B9620008B962000824
:10005000B9620008B9620008B9620008B962000814
:10006000B9620008B9620008B9620008B962000804
:10007000B9620008B9620008B9620008B9620008F4
:10008000B9620008B9620008B9620008B9620008E4
:10009000B9620008B9620008B9620008B9620008D4
:1000A000B9620008B9620008B9620008B9620008C4
:1000B000994B0008B9620008B9620008B9620008EB
:1000C000B9620008B9620008B9620008B9620008A4
:1000D000B9620008AD4B0008C14B0008B9620008C6
:1000E000B9620008B9620008B9620008B962000884
:1000F000B9620008B9620008B9620008B962000874
:10010000B9620008B9620008B9620008B962000863
:10011000B9620008B9620008B9620008B962000853
:10012000D54B0008B9620008B9620008B96200083E
:10013000B9620008B9620008B9620008B962000833
:10014000B9620008B9620008B9620008B962000823
:10015000B9620008B9620008B9620008B962000813
:10016000B9620008B9620008B9620008B962000803
:10017000B9620008B9620008B96200080000000016
:08018000B9620008B962000831
:1001900010B5054C237833B9044B13B10448AFF3C1
:1001A00000800123237010BDE80000200000000043
:1001B00064D3000808B5034B1BB103490348AFF3F0
:1001C000008008BD00000000EC00002064D300089F
:1001D00001F0FF01102A2BDB10F0070F08D010F8F8
:1001E000013B013A8B422DD010F0070F42B3F6D1FC
:1001F000F0B441EA012141EA014122F007047FF015
:1002000000070023F0E80256083C85EA010586EA6B
:10021000010685FA47F5A3FA87F586FA47F6A5FAA7
:1002200087F68EB9EED1F0BC01F0FF0102F00702B3
:1002300032B110F8013B013A83EA010313B1F8D15E
:100240000020704701387047002D06BF354603383F
:10025000073815F0010F07D1013015F4807F02BF78
:10026000013015F4C03F0130F0BC0138704700BFC9
:1002700081F0004102E000BF83F0004330B54FEA57
:1002800041044FEA430594EA050F08BF90EA020FC4
:100290001FBF54EA000C55EA020C7FEA645C7FEA57
:1002A000655C00F0E2804FEA5454D4EB5555B8BF7A
:1002B0006D420CDD2C4480EA020281EA030382EAEB
:1002C000000083EA010180EA020281EA0303362D7D
:1002D00088BF30BD11F0004F4FEA01314FF4801C50
:1002E0004CEA113102D0404261EB410113F0004F62
:1002F0004FEA03334CEA133302D0524263EB430319
:1003000094EA050F00F0A780A4F10104D5F1200EB6
:100310000DDB02FA0EFC22FA05F2801841F1000111
:1003200003FA0EF2801843FA05F359410EE0A5F1E5
:1003300020050EF1200E012A03FA0EFC28BF4CF016
:10034000020C43FA05F3C01851EBE37101F00045CC
:1003500007D54FF0000EDCF1000C7EEB00006EEBD9
:100360000101B1F5801F1BD3B1F5001F0CD3490863
:100370005FEA30004FEA3C0C04F101044FEA4452BA
:1003800012F5800F80F09A80BCF1004F08BF5FEA41
:10039000500C50F1000041EB045141EA050130BD21
:1003A0005FEA4C0C404141EB0101013C28BFB1F533
:1003B000801FE9D291F0000F04BF01460020B1FA7E
:1003C00081F308BF2033A3F10B03B3F120020CDA51
:1003D0000C3208DD02F1140CC2F10C0201FA0CF02F
:1003E00021FA02F10CE002F11402D8BFC2F1200C94
:1003F00001FA02F120FA0CFCDCBF41EA0C0190404A
:10040000E41AA2BF01EB0451294330BD6FEA040492
:100410001F3C1CDA0C340EDC04F11404C4F120027D
:1004200020FA04F001FA02F340EA030021FA04F38F
:1004300045EA030130BDC4F10C04C4F1200220FAE6
:1004400002F001FA04F340EA0300294630BD21FA24
:1004500004F0294630BD94F0000F83F4801306BFEA
:1004600081F480110134013D4EE77FEA645C18BFDE
:100470007FEA655C29D094EA050F08BF90EA020F75
:1004800005D054EA000C04BF1946104630BD91EA6D
:10049000030F1EBF0021002030BD5FEA545C05D170
:1004A0004000494128BF41F0004130BD14F58004AF
:1004B0003CBF01F5801130BD01F0004545F0FE4123
:1004C00041F470014FF0000030BD7FEA645C1ABF58
:1004D000194610467FEA655C1CBF0B46024650EA8F
:1004E000013406BF52EA033591EA030F41F40021BB
:1004F00030BD00BF90F0000F04BF0021704730B541
:100500004FF4806404F132044FF000054FF0000115
:1005100050E700BF90F0000F04BF0021704730B5D6
:100520004FF4806404F1320410F0004548BF4042AB
:100530004FF000013EE700BF42004FEAE2014FEA00
:1005400031014FEA02701FBF12F07F4393F07F4FDB
:1005500081F06051704732F07F4208BF704793F0DE
:100560007F4F04BF41F40021704730B54FF46074F1
:1005700001F0004521F000411CE700BF50EA0102F4
:1005800008BF704730B54FF000050AE050EA01029D
:1005900008BF704730B511F0004502D5404261EB0D
:1005A00041014FF4806404F132045FEA915C3FF44E
:1005B000D8AE4FF003025FEADC0C18BF03325FEAEB
:1005C000DC0C18BF033202EBDC02C2F1200300FA9C
:1005D00003FC20FA02F001FA03FE40EA0E0021FAC1
:1005E00002F11444BDE600BF70B54FF0FF0C4CF4AF
:1005F000E06C1CEA11541DBF1CEA135594EA0C0F61
:1006000095EA0C0F00F0DEF82C4481EA030621EA9B
:100610004C5123EA4C5350EA013518BF52EA0335D6
:1006200041F4801143F4801338D0A0FB02CE4FF088
:100630000005E1FB02E506F00042E0FB03E54FF0B8
:100640000006E1FB03569CF0000F18BF4EF0010EB0
:10065000A4F1FF04B6F5007F64F5407404D25FEAAC
:100660004E0E6D4146EB060642EAC62141EA55515F
:100670004FEAC52040EA5E504FEACE2EB4F1FD0CA1
:1006800088BFBCF5E06F1ED8BEF1004F08BF5FEA1F
:10069000500E50F1000041EB045170BD06F00046D1
:1006A00046EA010140EA020081EA0301B4EB5C047E
:1006B000C2BFD4EB0C0541EA045170BD41F4801176
:1006C0004FF0000E013C00F3AB8014F1360FDEBF9B
:1006D000002001F0004170BDC4F10004203C35DA77
:1006E0000C341BDC04F11404C4F1200500FA05F3FA
:1006F00020FA04F001FA05F240EA020001F000429B
:1007000021F0004110EBD37021FA04F642EB060110
:100710005EEA430E08BF20EAD37070BDC4F10C043A
:10072000C4F1200500FA04F320FA05F001FA04F2FE
:1007300040EA020001F0004110EBD37041F10001EA
:100740005EEA430E08BF20EAD37070BDC4F12005F5
:1007500000FA05F24EEA020E20FA04F301FA05F25D
:1007600043EA020321FA04F001F0004121FA04F205
:1007700020EA020000EBD3705EEA430E08BF20EAD5
:10078000D37070BD94F0000F0FD101F0004640000F
:1007900041EB010111F4801F08BF013CF7D041EA91
:1007A000060195F0000F18BF704703F00046520095
:1007B00043EB030313F4801F08BF013DF7D043EA66
:1007C0000603704794EA0C0F0CEA135518BF95EA1C
:1007D0000C0F0CD050EA410618BF52EA4306D1D1A3
:1007E00081EA030101F000414FF0000070BD50EAC2
:1007F000410606BF1046194652EA430619D094EA4C
:100800000C0F02D150EA013613D195EA0C0F05D135
:1008100052EA03361CBF104619460AD181EA030189
:1008200001F0004141F0FE4141F470014FF0000041
:1008300070BD41F0FE4141F4780170BD70B54FF0DC
:10084000FF0C4CF4E06C1CEA11541DBF1CEA13555C
:1008500094EA0C0F95EA0C0F00F0A7F8A4EB05043E
:1008600081EA030E52EA03354FEA013100F0888035
:100870004FEA03334FF0805545EA131343EA1263FE
:100880004FEA022245EA111545EA10654FEA0026B3
:100890000EF000419D4208BF964244F1FD0404F56C
:1008A000407402D25B084FEA3202B61A65EB0305C8
:1008B0005B084FEA32024FF480104FF4002CB6EB85
:1008C000020E75EB030E22BFB61A754640EA0C0005
:1008D0005B084FEA3202B6EB020E75EB030E22BF45
:1008E000B61A754640EA5C005B084FEA3202B6EB86
:1008F000020E75EB030E22BFB61A754640EA9C0045
:100900005B084FEA3202B6EB020E75EB030E22BF14
:10091000B61A754640EADC0055EA060E18D04FEAD2
:10092000051545EA16754FEA06164FEAC30343EA72
:1009300052734FEAC2025FEA1C1CC0D111F4801F3F
:100940000BD141EA00014FF000004FF0004CB6E738
:1009500011F4801F04BF01430020B4F1FD0C88BFD7
:10096000BCF5E06F3FF6AFAEB5EB030C04BFB6EBE2
:10097000020C5FEA500C50F1000041EB045170BDD5
:100980000EF0004E4EEA113114EB5C04C2BFD4EB02
:100990000C0541EA045170BD41F480114FF0000E86
:1009A000013C90E645EA060E8DE60CEA135594EA02
:1009B0000C0F08BF95EA0C0F3FF43BAF94EA0C0F05
:1009C0000AD150EA01347FF434AF95EA0C0F7FF47A
:1009D00025AF104619462CE795EA0C0F06D152EACE
:1009E00003353FF4FDAE1046194622E750EA4106B2
:1009F00018BF52EA43067FF4C5AE50EA41047FF4C3
:100A00000DAF52EA43057FF4EBAE12E74FF0FF3C27
:100A100006E000BF4FF0010C02E000BF4FF0010CF8
:100A20004DF804CD4FEA410C7FEA6C5C4FEA430C71
:100A300018BF7FEA6C5C1BD001B050EA410C0CBFC0
:100A400052EA430C91EA030F02BF90EA020F002022
:100A5000704710F1000F91EA030F58BF994208BF89
:100A600090422CBFD8176FEAE37040F00100704746
:100A70004FEA410C7FEA6C5C02D150EA013C07D19D
:100A80004FEA430C7FEA6C5CD6D152EA033CD3D0E8
:100A90005DF8040B704700BF8446104662468C46E2
:100AA0001946634600E000BF01B5FFF7B7FF002815
:100AB00048BF10F1000F01BD4DF808EDFFF7F4FF3E
:100AC0000CBF012000205DF808FB00BF4DF808EDC9
:100AD000FFF7EAFF34BF012000205DF808FB00BFEC
:100AE0004DF808EDFFF7E0FF94BF012000205DF80E
:100AF00008FB00BF4DF808EDFFF7CEFF94BF0120C3
:100B000000205DF808FB00BF4DF808EDFFF7C4FFBB
:100B100034BF012000205DF808FB00BF4FEA410C04
:100B20007FEA6C5C02D150EA013C0AD14FEA430CE7
:100B30007FEA6C5C02D152EA033C02D14FF0000024
:100B400070474FF0010070474A0011D212F50012B1
:100B500011D20DD56FF47873B3EB62520ED44FEA15
:100B6000C12343F0004343EA505323FA02F0704795
:100B70004FF00000704750EA013002D14FF0FF30D3
:100B800070474FF00000704753B94AB9002908BFB9
:100B900000281CBF4FF0FF314FF0FF3000F06AB962
:100BA000ADF1080C6DE904CE00F006F8DDF804E0C4
:100BB000DDE9022304B070472DE9F047089D0C469B
:100BC000002B4ED194468C458646B2FA82F262D909
:100BD0004AB1C2F12003914020FA03F30CFA02FC5F
:100BE000194300FA02FE4FEA1C471FFA8CF6B1FBCC
:100BF000F7F44FEA1E4307FB141143EA014304FBD9
:100C000006F199420AD91CEB030304F1FF3080F08E
:100C10001281994240F20F81023C6344591A1FFA33
:100C20008EF3B1FBF7F007FB101143EA014300FB21
:100C300006F69E420AD91CEB030300F1FF3180F057
:100C4000FC809E4240F2F980634402389B1B40EADC
:100C5000044000211DB1D3400022C5E90032BDE8A7
:100C6000F0878B4205D90DB1C5E900010021084686
:100C7000F5E7B3FA83F1002946D1A34202D39042AB
:100C8000C0F0F080861A64EB03030120002DE6D04B
:100C9000C5E90063E3E7002A40F09080A1EB0C0473
:100CA0004FEA1C481FFA8CF70121B4FBF8F64FEA13
:100CB0001E4308FB164443EA044307FB06F0984230
:100CC00008D91CEB030306F1FF3402D2984200F26C
:100CD000CD8026461C1A1FFA8EF3B4FBF8F008FBF1
:100CE000104443EA044300FB07F79F4208D91CEB7A
:100CF000030300F1FF3402D29F4200F2B08020468D
:100D0000DB1B40EA0640A5E7C1F120068B4022FA32
:100D100006F71F4320FA06FC04FA01F343EA0C032A
:100D2000F44000FA01F8380C4FEA1349B4FBF0FE26
:100D30001FFA87FC00FB1E4449EA04440EFB0CF931
:100D4000A14502FA01F20AD93C190EF1FF3A80F0EE
:100D50008480A14540F28180AEF1020E3C44A4EBB8
:100D600009041FFA83F9B4FBF0F300FB134449EACA
:100D7000044403FB0CFCA44507D93C1903F1FF30E4
:100D800067D2A44565D9023B3C4443EA0E40A0FB30
:100D90000293A4EB0C049C42CE469C4651D34ED009
:100DA00055B1B8EB0E0364EB0C0404FA06F6CB4025
:100DB0001E43CC40C5E90064002150E7C2F1200386
:100DC00020FA03F10CFA02FC24FA03F394400C43DA
:100DD0004FEA1C4800FA02FE1FFA8CF7B3FBF8F04A
:100DE00008FB1031230C43EA014300FB07F1994251
:100DF00008D91CEB030300F1FF362CD299422AD903
:100E0000023863445B1AA4B2B3FBF8F108FB113358
:100E100044EA034401FB07F3A34208D91CEB040492
:100E200001F1FF3613D2A34211D902396444E41A06
:100E300041EA004139E70446F0E6084606E7C845BE
:100E4000AED2B9EB020E63EB070C0138A8E73146CE
:100E5000EDE7034699E73046D4E7D6467FE763449B
:100E600002384DE70646234608460FE7023E634434
:100E700030E700BF704700BF80B584B000AF3B468D
:100E800000221A605A609A60DA603D4B3D4A1A604F
:100E90003B4B00225A603A4B00229A60384B0122A9
:100EA0001A61374B00221A76354B002283F8202036
:100EB000334B0022DA62324B334A9A62304B0022C3
:100EC000DA602F4B0522DA612D4B002283F83020A7
:100ED0002B4B01225A612A4805F086FA0346002B63
:100EE00001D002F0A7FB08233B6001237B600023B5
:100EF000BB603B461946224805F0BAFA0346002B70
:100F000001D002F097FB09233B6002237B603B4644
:100F100019461B4805F0ACFA0346002B01D002F03D
:100F200089FB0A233B6003237B603B461946144838
:100F300005F09EFA0346002B01D002F07BFB0B2349
:100F40003B6004237B603B4619460D4805F090FA50
:100F50000346002B01D002F06DFB0C233B60052300
:100F60007B603B461946064805F082FA0346002B93
:100F700001D002F05FFB00BF1037BD4680BD00BF4F
:100F800004010020002001400100000F80B58AB05C
:100F900000AF786007F1140300221A605A609A606B
:100FA000DA601A617B681B683C4A934271D1002366
:100FB0003B613B4B5B6C3A4A43F480735364384B60
:100FC0005B6C03F480733B613B690023FB60344B33
:100FD0001B6B334A43F004031363314B1B6B03F069
:100FE0000403FB60FB680023BB602D4B1B6B2C4A8A
:100FF00043F0020313632A4B1B6B03F00203BB6035
:10100000BB6807237B610323BB610023FB6107F1FE
:1010100014031946234806F0D7F803237B61032302
:10102000BB610023FB6107F1140319461E4806F05B
:10103000CBF81E4B1E4A1A601C4B00225A601B4BF9
:1010400000229A60194B0022DA60184B4FF480623C
:101050001A61164B4FF400625A61144B4FF4005260
:101060009A61124B4FF48072DA61104B00221A62BF
:101070000E4B00225A620D4805F02AFD0346002B54
:1010800001D002F0D7FA7B68084A9A63074A7B6866
:10109000936300BF2837BD4680BD00BF00200140DC
:1010A0000038024000080240000402404C010020C9
:1010B0001064024080B500AF00F03CF800BF80BD76
:1010C00080B588B004AF0346FB800023FB73FA8829
:1010D0000A2302930123019307F10F0300931023C6
:1010E000A021044806F096FCFB7B18461037BD464D
:1010F00080BD00BF5402002080B586B004AF034617
:101100000A46FB8013467B71FA880A230293012367
:1011100001937B1D00931023A021054806F080FB5E
:10112000052005F03DF900BF0837BD4680BD00BF72
:101130005402002080B582B000AF4FF6FF70FFF779
:10114000BFFF0346FB71FB79552B01D1002310E053
:1011500055214FF6FF70FFF7CFFF4FF6FF70FFF7F7
:10116000AFFF0346FB71FB79552B01D1002300E053
:10117000012318460837BD4680BD90B583B000AF47
:1011800003463960FB801346BB800DE0FB885A1C88
:10119000FA803C68621C3A601846FFF791FF0346EC
:1011A0002370BB88013BBB80BB88002BEED100BF06
:1011B00000BF0C37BD4690BD80B582B000AF03467E
:1011C0003960FB801346BB800CE03B681A78FB88D3
:1011D00011461846FFF790FFFB880133FB803B6800
:1011E00001333B60BB885A1EBA80002BEDD100BF93
:1011F00000BF0837BD4680BD80B500AF0122082181
:10120000024806F095F900BF80BD00BF000C024007
:1012100080B584B000AF002208212F4806F088F97D
:10122000012208212C4806F083F90A2302222B49C7
:101230002B4807F0CEFF0023FB604FF400437B8177
:1012400000237B603FE07B68002B06DB7B68032B81
:1012500003DC7B680433FB6018E07B68032B07DD4D
:101260007B68072B04DC7B68C3F10703FB600DE0A0
:101270007B68072B06DD7B680B2B03DC7B68043364
:10128000FB6003E07B68C3F11703FB60134B1A8814
:101290007B8913409BB2002B05D0124AFB680021CA
:1012A00022F8131009E00F4AFB6832F813300133BB
:1012B00099B20C4AFB6822F813107B895B087B818A
:1012C0007B6801337B607B680F2BBCDD00BF00BFF8
:1012D0001037BD4680BD00BF000C0240CC0100208D
:1012E000400B0020AC01002080B500AF0021024877
:1012F00008F018FD00BF80BD2C0C002080B483B026
:1013000000AF0346FB71074AFB791370054B1A784F
:10131000054B1B685A6300BF0C37BD465DF8047B64
:10132000704700BFCE0100202C0C002080B582B099
:1013300000AF00237B600C4B1B6B0B4A43F4800314
:101340001363094B1B6B03F480037B607B680022F3
:101350000021382005F085FB382005F09EFB00BFFA
:101360000837BD4680BD00BF0038024080B500AFE1
:101370001A4B1B68032B2ED801A252F823F000BF92
:10138000911300089F130008B1130008C31300084D
:10139000134B00221A60134B00221A601BE0104B03
:1013A00001221A600F4B00221A6002F015FF12E0B2
:1013B0000B4B01221A600B4B01221A6002F00CFF4A
:1013C00009E0074B00221A60064B00221A60064B08
:1013D000B4221A6000BF00BF80BD00BFD80100204A
:1013E000E0010020E40100200800002080B500AFEB
:1013F000144B1B68002B02D0012B12D020E0124BA3
:101400001B88012B09D1114804F000FE4FF47A70BB
:1014100003F004FA0B4B01221A600020FFF76EFF65
:101420000EE0094B1B88012B06D14FF47A7003F0B4
:10143000F5F9044B00221A603220FFF75FFF00BF6E
:1014400000BF80BDEC0100203A0B00207CD30008D7
:1014500080B500AF074B1B68002B02D0012B04D0D6
:1014600006E00020FFF74AFF02E0FFF7BFFF00BFE2
:1014700000BF80BDF001002080B400AF4D4B1B8841
:10148000012B08D14C4B1A6813469B0013445B0098
:101490000133494A1360474B5B88012B08D1464B07
:1014A0001A6813469B0013445B000233424A1360E0
:1014B000404B9B88012B08D13F4B1A6813469B0079
:1014C00013445B0003333C4A13603A4B1B89012BE6
:1014D00008D1394B1A6813469B0013445B00043350
:1014E000354A1360334B5B89012B08D1324B1A68A4
:1014F00013469B0013445B0005332F4A13602D4BAA
:101500009B89012B08D12C4B1A6813469B0013446E
:101510005B000633284A1360264B1B8A012B08D137
:10152000254B1A6813469B0013445B000733224A7D
:101530001360204B5B8A012B08D11F4B1A6813469E
:101540009B0013445B0008331B4A1360194B9B8AB2
:10155000012B08D1184B1A6813469B0013445B00FB
:101560000933154A1360134B5B8B012B08D1124BC7
:101570001A6813469B0013445B001A460E4B1A6010
:101580000D4B1B6842F20F7293420EDD0A4B196835
:101590000A4B83FB01239A10CB17D21A13469B00E8
:1015A00013445B00CA1A044B1A6000BFBD465DF8C5
:1015B000047B7047AC010020D4010020676666669A
:1015C00080B584B004AF784B1B8B012B1CD100205D
:1015D00001F030F84FF4FC6300934FF49673BE2291
:1015E000C821322001F058F80123029318230193F7
:1015F0000023009300236D4AEB215A2001F004FDE3
:101600006B4B00221A60CCE000230293102301935D
:10161000002300934FF6FF73664A0A21002001F071
:10162000F3FC0023029310230193002300934FF651
:10163000FF73614A1E21002001F0E6FC00230293A3
:1016400010230193002300934FF6FF735B4A32216E
:10165000002001F0D9FC0023029310230193002302
:1016600000934FF6FF73564A4621002001F0CCFC50
:101670000023029310230193002300934FF6FF737E
:10168000504A5A21002001F0BFFC474B1B88012B18
:101690001ED14D4B00221A60002000F0CBFF444BBE
:1016A00000221A604FF4FC6300934FF49673BE223D
:1016B000C821322000F0F0FF012302931823019388
:1016C000002300930023394AEB215A2001F09CFCAF
:1016D000354B5B88012B1ED13B4B01221A60002049
:1016E00000F0A8FF324B00221A604FF4FC63009315
:1016F0004FF49673BE22C821322000F0CDFF0123A3
:10170000029318230193002300930023274AEB211F
:101710005A2001F079FC244B9B88012B1ED12A4BC7
:1017200002221A60002000F085FF214B00221A607F
:101730004FF4FC6300934FF49673BE22C82132200D
:1017400000F0AAFF012302931823019300230093C2
:101750000023164AEB215A2001F056FC124B1B893C
:10176000012B1ED1184B03221A60002000F062FFEB
:101770000F4B00221A604FF4FC6300934FF49673F2
:10178000BE22C821322000F087FF012302931823D4
:101790000193002300930023044AEB215A2001F017
:1017A00033FCBD4680BD00BFAC0100209CD30008C7
:1017B000D0010020A4D30008B0D30008B8D300089B
:1017C000C4D30008D0D30008D801002080B584B06D
:1017D00004AF614B1B8B012B1CD1002000F02AFFB2
:1017E0005E4B00221A604FF4FC6300934FF4967333
:1017F000BE22C821322000F04FFF0123029318239C
:101800000193002300930023554AEB215A2001F055
:10181000FBFB9EE00023029310230193002300931F
:101820004FF6FF734F4A0A21002001F0EDFB002321
:10183000029310230193002300934FF6FF734A4A4B
:101840001E21002001F0E0FB0023029310230193EE
:10185000002300934FF6FF73444A3221002001F029
:10186000D3FB0023029310230193002300934FF630
:10187000FF733F4A4621002001F0C6FB364B1B8810
:10188000012B1FD13B4B4FF47A721A60002000F0FD
:10189000D1FE324B00221A604FF4FC6300934FF4E8
:1018A0009673BE22C821322000F0F6FE0123029377
:1018B00018230193002300930023294AEB215A2087
:1018C00001F0A2FB244B5B88012B1FD1294B4FF465
:1018D000FA721A60002000F0ADFE204B00221A6060
:1018E0004FF4FC6300934FF49673BE22C82132205C
:1018F00000F0D2FE012302931823019300230093EA
:101900000023174AEB215A2001F07EFB124B9B88E3
:10191000012B1ED1174B64221A60002000F08AFEB2
:101920000E4B00221A604FF4FC6300934FF4967341
:10193000BE22C821322000F0AFFE012302931823FB
:101940000193002300930023054AEB215A2001F064
:101950005BFBBD4680BD00BFAC010020D001002074
:101960009CD30008D8D30008E0D30008ECD30008CB
:10197000D0D300080000002080B588B004AF7860A4
:101980007B68FB600123BB60002302931823019353
:10199000002300934FF6FF73664A0A210F2001F0DF
:1019A00033FB0023029318230193002300934FF687
:1019B000FF73614A0A21502001F026FB00230293A5
:1019C00018230193002300934FF6FF735B4A0A210B
:1019D000AA2001F019FB9CE0BB68013B9BB21A46B0
:1019E000920013449B009BB2323399B2FB681B6890
:1019F0009AB210230293002301934FF6FF730093D2
:101A000004230F2001F006F8BB68013B9BB21A4685
:101A1000920013449B009BB2323399B2FB685B681F
:101A20009AB210230293002301934FF6FF730093A1
:101A30000423532000F0EEFFFB689B68002B16D1B7
:101A4000BB68013B9BB21A46920013449B009BB2B9
:101A5000323399B2002302931023019300230093A1
:101A60004FF6FF73364AAA2001F0CEFA4BE0FB682E
:101A70009B68012B16D1BB68013B9BB21A469200B2
:101A800013449B009BB2323399B20023029310237C
:101A90000193002300934FF6FF732A4AAA2001F016
:101AA000B3FA30E0FB689B68022B16D1BB68013BA0
:101AB0009BB21A46920013449B009BB2323399B2F8
:101AC0000023029310230193002300934FF6FF732A
:101AD0001D4AAA2001F098FA15E0BB68013B9BB2B1
:101AE0001A46920013449B009BB2323399B20023F2
:101AF000029310230193002300934FF6FF73134AC0
:101B0000AA2001F081FAFB68DB68FB60BB68013347
:101B1000BB60FB68002B08D0BB685A1E13469B00B5
:101B200013449B00F92B7FF757AF00BF1037BD461A
:101B300080BD00BFF4D30008F8D3000800D400082B
:101B400008D4000810D4000818D4000820D40008D5
:101B5000F0B59FB004AF4F4B1B68052B00F27482A9
:101B600001A252F823F000BFD11B00086B1C000833
:101B7000B91F0008C51B0008CB1B0008811B00080B
:101B8000454B1B8B012B40F06182002000F052FD81
:101B90004FF4FC6300934FF49673BE22C8213220A9
:101BA00000F07AFD01230293182301930023009390
:101BB00000233A4AEB215A2001F026FA354B002245
:101BC0001A6043E2FFF7FCFC47E2FFF7FFFD44E247
:101BD00001F036FDFFF750FC2F4B9B8B012B05D1FD
:101BE000002000F027FD2B4B03221A602A4B1B8B91
:101BF000012B05D1002000F01DFD264B04221A60A8
:101C0000254BDB8B012B0AD1002000F013FD244B68
:101C10001B681846FFF7B0FE1E4B05221A6004F041
:101C20000DF90346002B00F013821A4B01221A60B3
:101C30001C4B1A681C4B1B78381D1C490AF08EFA85
:101C40003B1D184604F0E2F9194B00221A600020EF
:101C500000F0F0FC02F04AFA01F0E0FDFFF786FB2D
:101C60004FF47A7002F0A2FDF2E1124B1B88012BB7
:101C700040F0B5804FF47A7002F098FD0E4B1B686F
:101C8000002B1BD1012001F01DFB0B4B01221A6020
:101C90001AE000BFD0010020AC0100209CD3000856
:101CA000FC010020D40100200400002028D40008FA
:101CB000DC010020280B0020F4010020002001F0AE
:101CC00001FBA44B00221A60A34B1B680133A24AFC
:101CD0001360A14B1B68A14A1360A14B1B68012B29
:101CE00015D19D4B19689F4B83FB01235A10CB17CD
:101CF000D21A13469B001344CA1A002A07D19A4BE2
:101D00001B68002B01D102F0B9F802F065FA974B7D
:101D10001B68032B08D1964B1B68013B944A136048
:101D2000934B1B688D4A13608C4B1968914B83FB56
:101D300001230B445A11CB17D21A13461B019B1ACD
:101D40009B00CA1A874B83FB02139910D317C81A3A
:101D500003469B0003445B00D01A0022032101F0DC
:101D60008DFA7E4B1968834B83FB01230B445A1178
:101D7000CB17D21A13461B019B1A9B00CA1A794B28
:101D800083FB02139910D317CB1A002202211846A5
:101D900001F074FA714B1B68764A82FB03121A44F5
:101DA0005211DB17D21A6F4B83FB02139910D31712
:101DB000C81A03469B0003445B00D01A002201218D
:101DC00001F05CFA654B1B686B4A82FB03129211AF
:101DD000DB17D31A00220021184601F04FFA04F055
:101DE00051F80346002B0BD0644B00221A60644B61
:101DF00001221A60634B01221A60634B01221A60B0
:101E000004F063F80346002B0BD05C4B01221A60F0
:101E10005B4B00221A605B4B01221A605A4B012275
:101E20001A6004F077F80346002B0BD0534B0122C5
:101E30001A60534B01221A60524B00221A60524B17
:101E400001221A6004F08BF80346002B0BD04B4B99
:101E500001221A604A4B01221A604A4B01221A6081
:101E6000494B00221A6002F093FB01F069FF474BD7
:101E70001B88012B0BD1464B1B689BB2184602F006
:101E800079FC02F05BF801F0FFFC01F059FF414BD7
:101E90001B68012B40F0DE803F4B02221A603F4B53
:101EA00019683F4B1B781A46304B1B683D4801F0C0
:101EB0000FF93D4B01221A60384B1D68384B1B78D7
:101EC0001E46254B1B682B4A82FB03121A445211F3
:101ED000DB17D01A204B1A68264B83FB02131344DE
:101EE0005911D317C91A0B461B015B1A9B00D11A53
:101EF0002E4B1B783C1D02930191009033462A46DD
:101F00002B4920460AF02AF93B1D184604F07EF8BA
:101F1000254B00221A60002000F08CFB4FF4FC637C
:101F200000934FF49673BE22FA21322000F0B4FBE6
:101F300001230293182301930023009300231D4AD9
:101F40004FF48271502001F05FF8124B00221A60AA
:101F500080E000BFF4010020DC010020E801002047
:101F6000E001002067666666E4010020D8010020D9
:101F70000800002089888888B5814E1B2800002031
:101F80002C0000203400002030000020220B002014
:101F900000000020180B0020D0010020D4010020F8
:101FA000140B0020FC010020F80100200400002098
:101FB0003CD4000868D40008FFF75EFA01F08CFCFE
:101FC000284B9B8B012B05D1002000F033FB264BC7
:101FD00003221A60234B1B8B012B05D1002000F03C
:101FE00029FB214B04221A601E4BDB8B012B0AD1EB
:101FF000002000F01FFB1D4B1B681846FFF7BCFCC0
:10200000194B05221A6003F0CFFF0346002B23D0A3
:10201000174B1A68174B1B78381D17490AF09EF8A2
:102020003B1D184603F0F2FF144B00221A600E4BC2
:1020300001221A60002000F0FDFA02F057F801F0CA
:10204000EDFBFFF793F907E000BF06E000BF04E0F7
:1020500000BF02E000BF00E000BF00BF6C37BD461C
:10206000F0BD00BFAC010020D0010020FC01002029
:10207000D40100200400002028D40008DC01002046
:1020800080B58EB000AF07F11C0300221A605A60C1
:102090009A60DA601A615A619A613B4600221A60BE
:1020A0005A609A60DA601A615A619A612F4B4FF058
:1020B00020421A602D4B2E4A5A602C4B00229A6007
:1020C0002A4B0022DA60294B00221A61274B10228A
:1020D0005A61264B00229A61244B0022DA61234B7D
:1020E00000221A62214B00225A62204B4FF4805288
:1020F0009A621E4B0022DA621C4B4FF480421A6334
:102100001A4B00225A63194B00229A63174B002284
:102110005A640F23FB610F233B623C237B62002345
:10212000BB621023FB6211233B6300237B63082304
:102130003B600F237B600923BB600023FB601023FF
:102140003B6111237B610023BB613A4607F11C030D
:102150001946064807F020FC0346002B01D001F089
:1021600069FA00BF3837BD4680BD00BF00020020BD
:10217000040100A080B586B000AF3B1D00221A60AC
:102180005A609A60DA601A611C4B1B68002B31D1CF
:102190001A4B01221A6000233B60194B9B6B184AB3
:1021A00043F001039363164B9B6B03F001033B6009
:1021B0003B684FF688737B600223BB600023FB60A3
:1021C00003233B610C237B613B1D19460D4804F042
:1021D000FBFF4CF2B3737B600223BB600023FB6008
:1021E00003233B610C237B613B1D1946064804F029
:1021F000EBFF00E000BF1837BD4680BD5002002055
:102200000038024000100240000C024080B582B04D
:1022100000AF7860FFF7AEFF00BF0837BD4680BD56
:1022200080B58EB000AF07F1240300221A605A6017
:102230009A60DA601A6100233B627E4B1B6B7D4A19
:1022400043F0100313637B4B1B6B03F010033B62E3
:102250003B6A0023FB61774B1B6B764A43F0040318
:102260001363744B1B6B03F00403FB61FB690023D6
:10227000BB61704B1B6B6F4A43F0200313636D4BC4
:102280001B6B03F02003BB61BB6900237B61694BBF
:102290001B6B684A43F080031363664B1B6B03F0B0
:1022A00080037B617B6900233B61624B1B6B614A4E
:1022B00043F0010313635F4B1B6B03F001033B61AE
:1022C0003B690023FB605B4B1B6B5A4A43F00203E4
:1022D0001363584B1B6B03F00203FB60FB68002386
:1022E000BB60544B1B6B534A43F008031363514BC1
:1022F0001B6B03F00803BB60BB6800237B604D4B86
:102300001B6B4C4A43F0400313634A4B1B6B03F0B7
:1023100040037B607B6800227021474805F008F984
:1023200000224FF40851454805F002F900224FF40D
:10233000E071434805F0FCF800224FF480714148F9
:1023400005F0F6F8002208213F4805F0F1F8702367
:102350007B620123BB620023FB6200233B6307F126
:1023600024031946344804F02FFF4FF408537B62CE
:102370000123BB620023FB6200233B6307F12403BC
:1023800019462E4804F020FFC0237B620023BB6265
:102390000023FB6207F1240319462A4804F014FFC6
:1023A00030237B620023BB620023FB6207F124031E
:1023B0001946224804F008FF4FF4E0737B620123C2
:1023C000BB620023FB6200233B6307F12403194631
:1023D0001B4804F0F9FE4FF488537B620023BB6274
:1023E0000123FB6207F124031946144804F0ECFEB4
:1023F0004FF480737B620123BB620023FB620023E6
:102400003B6307F1240319460E4804F0DDFE082360
:102410007B620123BB620023FB6200233B6307F165
:1024200024031946084804F0CFFE00BF3837BD46E4
:1024300080BD00BF0038024000100240000802408A
:102440000018024000000240000C024080B500AFBE
:10245000124B134A1A60114B124A5A600F4B00225A
:102460009A600E4B0022DA600C4B4FF480421A61E6
:102470000A4B00225A61094B00229A61074B002245
:10248000DA61064B00221A62044805F085F803461B
:10249000002B01D001F0CEF800BF80BD5402002017
:1024A00000540040A086010080B58AB000AF78607B
:1024B00007F1140300221A605A609A60DA601A6108
:1024C0007B681B68194A93422BD100233B61184B50
:1024D0001B6B174A43F002031363154B1B6B03F08E
:1024E00002033B613B69C0237B611223BB61002374
:1024F000FB6103233B6204237B6207F1140319464B
:102500000C4804F061FE0023FB60094B1B6C084A79
:1025100043F400131364064B1B6C03F40013FB60BD
:10252000FB6800BF2837BD4680BD00BF0054004097
:10253000003802400004024080B483B000AF03467C
:10254000FB80044AFB88138000BF0C37BD465DF852
:10255000047B7047FEFF0F6080B483B000AF03467A
:10256000FB80044AFB88538000BF0C37BD465DF8F2
:10257000047B7047FEFF0F6080B483B000AF064B52
:102580005B889BB2FB80FB889BB218460C37BD462C
:102590005DF8047B704700BFFEFF0F6090B583B00D
:1025A00000AF0446084611461A462346FB80034600
:1025B000BB800B467B8013463B802A20FFF7BCFF85
:1025C000FB881B0A9BB21846FFF7C6FFFB88DBB2ED
:1025D0009BB21846FFF7C0FF7B881B0A9BB21846C8
:1025E000FFF7BAFF7B88DBB29BB21846FFF7B4FF58
:1025F0002B20FFF7A1FFBB881B0A9BB21846FFF7F1
:10260000ABFFBB88DBB29BB21846FFF7A5FF3B8848
:102610001B0A9BB21846FFF79FFF3B88DBB29BB2B9
:102620001846FFF799FF2C20FFF786FF00BF0C37F5
:10263000BD4690BD80B584B000AF0346FB80154B0E
:102640001B88013B9AB2134B5B88013B9BB2002174
:102650000020FFF7A3FF0023FB8111E00023BB81D3
:1026600006E0FB881846FFF777FFBB890133BB8183
:10267000084B5B88BA899A42F3D3FB890133FB810B
:10268000044B1B88FA899A42E8D300BF00BF103779
:10269000BD4680BDA802002090B585B000AF0446BD
:1026A000084611461A462346FB800346BB800B466C
:1026B0007B8013463B807B88013B9AB23B88013B81
:1026C0009BB2B988F888FFF769FFBB88FB8110E0EF
:1026D000FB88BB8106E03B8C1846FFF73DFFBB89BA
:1026E0000133BB81BA897B889A42F4D3FB890133D9
:1026F000FB81FA893B889A42EAD300BF00BF1437B6
:10270000BD4690BD80B582B000AF0346FB800B464E
:10271000BB8013467B80BB88FA88B988F888FFF7AE
:102720003DFF7B881846FFF717FF00BF0837BD46FF
:1027300080BD90B58DB000AF0446084611461A46DC
:102740002346FB800346BB800B467B8013463B80C1
:102750000023BB6200237B627A88FB88D31A3B622A
:102760003A88BB88D31AFB61FB88FB60BB88BB60DF
:102770003B6A002B02DD01237B610BE03B6A002BEF
:1027800002D100237B6105E04FF0FF337B613B6AA0
:102790005B423B62FB69002B02DD01233B610BE0E6
:1027A000FB69002B02D100233B6105E04FF0FF33B2
:1027B0003B61FB695B42FB613A6AFB699A4202DD5D
:1027C0003B6ABB6101E0FB69BB610023FB852BE039
:1027D000FB689BB2BA6891B2B7F840201846FFF781
:1027E00091FFBA6A3B6A1344BB627A6AFB6913447D
:1027F0007B62BA6ABB699A4207DDBA6ABB69D31ABF
:10280000BB62FA687B691344FB607A6ABB699A42CF
:1028100007DD7A6ABB69D31A7B62BA683B691344E5
:10282000BB60FB8D0133FB85FB8DBA699A42CFDA21
:1028300000BF00BF3437BD4690BD000090B587B0E3
:1028400000AF0446084611461A462346FB8003465D
:10285000BB800B46FB7013463B8000237B75FB88D7
:102860003B8297F82C305B08FB73FB7BDB08DBB209
:102870001A46FB7B03F00703DBB2002B14BF0123D6
:102880000023DBB213449AB297F82C309BB212FBB0
:1028900003F3BB81FB78203BFB70FB7B9AB2FB8888
:1028A00013449BB2013B9CB297F82C309AB2BB8880
:1028B00013449BB2013B9BB2B988F8882246FFF7CC
:1028C0006DFE00237B827AE097F82C300C2B28D009
:1028D00097F82C30102B08D1FA787B8A3C491201EA
:1028E0000A4413441B78FB751BE097F82C30182B17
:1028F0000BD1FA78798A374813465B0013441B01E1
:1029000003440B441B78FB750BE097F82C30202B0D
:102910005AD1FA787B8A304992010A4413441B78D1
:10292000FB750023BB7544E097F83030002B20D1B5
:10293000FA7DBB7D42FA03F303F00103002B04D0C0
:102940003B881846FFF708FE03E03B8D1846FFF76B
:1029500003FE7B7D01337B757B7DFA7BB3FBF2F15C
:1029600001FB02F29B1ADBB2002B1FD100237B7507
:1029700022E0FA7DBB7D42FA03F303F00103002B52
:1029800005D03A88B988FB881846FFF7BBFEFB885C
:102990000133FB80FA883B8AD21AFB7B9A4205D12D
:1029A0003B8AFB80BB880133BB8005E0BB7D0133E4
:1029B000BB75BB7D072BB7D97B8A01337B827A8AB3
:1029C000BB899A4280D300E000BF1C37BD4690BD52
:1029D000FCD60008ECDC0008BCEE000880B485B032
:1029E00000AF03460A46FB711346BB710123FB602F
:1029F00004E0FA79FB6802FB03F3FB60BB795A1E23
:102A0000BA71002BF5D1FB6818461437BD465DF846
:102A1000047B704790B589B004AF04460846114660
:102A20001A462346FB800346BB800B467B80134639
:102A30007B700023BB7397F828305B087B730023FF
:102A4000FB7359E07C887A78FB7BD31ADBB2013BBD
:102A5000DBB219460A20FFF7C1FF0346B4FBF3F1CE
:102A60002A4BA3FB0123DA0813469B0013445B00A7
:102A7000CA1A13463B73BB7B002B21D1FA7B7B78B0
:102A8000013B9A421CDA3B7B002B17D1FB7B9AB2AD
:102A90007B7B9BB212FB03F39AB2FB88134498B280
:102AA0003A8CB9880023029397F828300193BB8CA5
:102AB000009313462022FFF7C1FE1AE00123BB73E7
:102AC000FB7B9AB27B7B9BB212FB03F39AB2FB882F
:102AD000134498B23B7B3033DAB23C8CB988002384
:102AE000029397F828300193BB8C00932346FFF79D
:102AF000A5FEFB7B0133FB73FA7B7B789A42A1D363
:102B000000BF00BF1437BD4690BD00BFCDCCCCCCBC
:102B100080B483B000AF0346FB71FB791B09DBB2C5
:102B200003F00303DBB2002B07D00A4B4FF4A07273
:102B30001A80084BF0225A8006E0064BF0221A80D9
:102B4000044B4FF4A0725A8000BF0C37BD465DF8AD
:102B5000047B7047A802002080B500AF00224FF42C
:102B60000051AA4804F0E4FC4FF4FA7003F018FC9A
:102B700001224FF40051A54804F0DAFC4FF4FA703A
:102B800003F00EFC0020FFF7C3FFD320FFF7D4FCB7
:102B9000FFF7F2FC03461A469D4B9A80FFF7ECFCC8
:102BA00003461A469A4B9A80FFF7E6FC03461A46FC
:102BB000974B9A80964B9B881B029AB2944B9A80B3
:102BC000FFF7DAFC03461A46914B9B8813439AB2EF
:102BD0008F4B9A80CF20FFF7AFFC0020FFF7BCFCA3
:102BE000C120FFF7B9FC3020FFF7B6FCED20FFF75E
:102BF000A3FC6420FFF7B0FC0320FFF7ADFC12201C
:102C0000FFF7AAFC8120FFF7A7FCE820FFF794FC60
:102C10008520FFF7A1FC1020FFF79EFC7A20FFF72C
:102C20009BFCCB20FFF788FC3920FFF795FC2C207C
:102C3000FFF792FC0020FFF78FFC3420FFF78CFC9D
:102C40000220FFF789FCF720FFF776FC2020FFF732
:102C500083FCEA20FFF770FC0020FFF77DFC0020DA
:102C6000FFF77AFCC020FFF767FC1B20FFF774FC1E
:102C7000C120FFF761FC0120FFF76EFCC520FFF7C4
:102C80005BFC3020FFF768FC3020FFF765FCC720B5
:102C9000FFF752FCB720FFF75FFC3620FFF74CFC34
:102CA0000820FFF759FC3A20FFF746FC5520FFF7B4
:102CB00053FCB120FFF740FC0020FFF74DFC1A2029
:102CC000FFF74AFCB620FFF737FC0A20FFF744FC69
:102CD000A220FFF741FCF220FFF72EFC0020FFF7B7
:102CE0003BFC2620FFF728FC0120FFF735FCE02005
:102CF000FFF722FC0F20FFF72FFC2A20FFF72CFC08
:102D00002820FFF729FC0820FFF726FC0E20FFF7FC
:102D100023FC0820FFF720FC5420FFF71DFCA9200E
:102D2000FFF71AFC4320FFF717FC0A20FFF714FCFB
:102D30000F20FFF711FC0020FFF70EFC0020FFF72B
:102D40000BFC0020FFF708FC0020FFF705FCE1204A
:102D5000FFF7F2FB0020FFF7FFFB1520FFF7FCFB5E
:102D60001720FFF7F9FB0720FFF7F6FB1120FFF70D
:102D7000F3FB0620FFF7F0FB2B20FFF7EDFB5620BF
:102D8000FFF7EAFB3C20FFF7E7FB0520FFF7E4FB3A
:102D90001020FFF7E1FB0F20FFF7DEFB3F20FFF7DE
:102DA000DBFB3F20FFF7D8FB0F20FFF7D5FB2B20E5
:102DB000FFF7C2FB0020FFF7CFFB0020FFF7CCFBA3
:102DC0000120FFF7C9FB3F20FFF7C6FB2A20FFF7D2
:102DD000B3FB0020FFF7C0FB0020FFF7BDFB002086
:102DE000FFF7BAFBEF20FFF7B7FB1120FFF7A4FBBB
:102DF000782003F0D5FA2920FFF79EFB01224FF43B
:102E00008071044804F094FB00BF80BD00080240BC
:102E1000A80200200000024080B584B000AFF86036
:102E2000B9607A603B60FB689AB27B689BB21344DE
:102E300098B2BB689AB23B689BB213449BB23A8B80
:102E40001946FFF75FFCFB689AB27B689BB2D31A06
:102E500098B2BB689AB23B689BB213449BB23A8B60
:102E60001946FFF74FFCFB689AB27B689BB213448C
:102E700098B2BB689AB23B689BB2D31A9BB23A8BAA
:102E80001946FFF73FFCFB689AB27B689BB2D31AE6
:102E900098B2BB689AB23B689BB2D31A9BB23A8B8A
:102EA0001946FFF72FFCFB689AB23B689BB21344AC
:102EB00098B2BB689AB27B689BB213449BB23A8BC0
:102EC0001946FFF71FFCFB689AB23B689BB2D31A06
:102ED00098B2BB689AB27B689BB213449BB23A8BA0
:102EE0001946FFF70FFCFB689AB23B689BB213448C
:102EF00098B2BB689AB27B689BB2D31A9BB23A8BEA
:102F00001946FFF7FFFBFB689AB23B689BB2D31AE6
:102F100098B2BB689AB27B689BB2D31A9BB23A8BC9
:102F20001946FFF7EFFB00BF1037BD4680BD80B5E7
:102F30008AB002AFF860B9603B601346FB800023A3
:102F4000FB613B68BB613B685B00C3F103033B6112
:102F5000BB6A002B4FD029E0FB697B610AE0FB884C
:102F600000937B69FA69B968F868FFF755FF7B69D8
:102F700001337B617A69BB699A42F0DD3B69002BC2
:102F800006DAFB699A003B69134406333B610AE0A9
:102F9000FA69BB69D31A9A003B6913440A333B614F
:102FA000BB69013BBB61FB690133FB61FA69BB692A
:102FB0009A42D1DD23E0FB880093BB69FA69B968C6
:102FC000F868FFF729FF3B69002B06DAFB699A00D6
:102FD0003B69134406333B610AE0FA69BB69D31AC3
:102FE0009A003B6913440A333B61BB69013BBB61F7
:102FF000FB690133FB61FA69BB699A42DBDD00BF03
:103000002037BD4680BD000090B58BB004AFBA60DC
:103010001A460346FB810B46BB811346FB80FB89A6
:10302000BB820023FB7548E0FB7D002B45D1FA896C
:10303000264B1B88194697F82C305B08DBB2CB1A5D
:103040009A423FDCBA89214B5B88194697F82C30AD
:10305000CB1A9A4236DCBB681B78802B02D901233D
:10306000FB752AE0BB681B780D2B0BD197F82C3031
:103070009AB2BB891344BB81BB8AFB81BB68013315
:10308000BB6017E0BB681A78FC88B989F88997F8A3
:103090003030029397F82C3001933B8D00932346F8
:1030A000FFF7CCFB97F82C305B08DBB21A46FB89A4
:1030B0001344FB81BB680133BB60BB681B78002BEA
:1030C000B2D100E000BF1C37BD4690BDA802002071
:1030D00080B586B000AFF860B9607A603B601020C0
:1030E00008F086FE03463B613B69002B36D03B6906
:1030F000BA681A603B697A685A603B693A689A60B4
:103100003B690022DA60FB681B68002B05D0FB6876
:103110001B685B687A689A4207DDFB681A683B693E
:10312000DA60FB683A691A6019E0FB681B687B612A
:1031300002E07B69DB687B617B69DB68002B05D083
:103140007B69DB685B687A689A42F2DD7B69DA68E2
:103150003B69DA607B693A69DA6000E000BF1837E2
:10316000BD4680BD80B500AF3F4B1B88DBB29AB235
:103170003D4B1A803D4B1B683D4AD35C1B021AB283
:10318000394B1B881BB213431BB29AB2364B1A80C1
:10319000364B1B68032B47D801A252F823F000BF1F
:1031A000B1310008CF310008ED3100080B320008C2
:1031B0002D4B1B8843F0B0039AB22B4B1A802A4B3D
:1031C0001B8823F040039AB2274B1A802DE0264B30
:1031D0001B8843F0D0039AB2234B1A80224B1B88E2
:1031E00023F020039AB2204B1A801EE01E4B1B884E
:1031F00043F0E0039AB21C4B1A801B4B1B8823F050
:1032000010039AB2184B1A800FE0174B1B8843F03B
:1032100070039AB2144B1A80134B1B8823F080035F
:103220009AB2114B1A8000E000BF104B1B680133AB
:103230005A4203F0030302F0030258BF53420B4A01
:103240001360002240210B4804F072F9012302228E
:103250000549094805F081FE01224021054804F096
:1032600067F900BF80BD00BF1A000020B002002037
:103270000C00002000180240400B002080B485B0F4
:1032800000AFF860B9601346FB71FB68002B0EDBE2
:10329000FB68092B0BDC094AFB6813441A78FB799D
:1032A000D31AD9B2064ABB6813440A461A7000BF43
:1032B0001437BD465DF8047B704700BF1000002046
:1032C0000C00002080B483B000AF0346FB71FB7993
:1032D000012B07D10A4B1B8823F008039AB2084B35
:1032E0001A8006E0064B1B8843F008039AB2044B91
:1032F0001A8000BF0C37BD465DF8047B704700BFE5
:103300001A00002080B500AF02F0D8FF00F062F88C
:10331000FEF786FF01F090FD01F068FBFEF7B0FEBE
:10332000FFF794F801F0D4FDFEF700F8FDF7A4FDD7
:1033300001F032FD02F0B8FE02F0E0FE00F0B4F859
:10334000642001F017FA0A2001F04CFA0A2001F07B
:1033500065FA00BF1B4B1B88002BFBD0194B0022CA
:103360001A8002F037FDFDF753FF174B1B88012B26
:1033700005D100F0EDF841F2883001F033FA00F0A9
:103380005FFC0346002B03D0104B01221A6002E0C1
:103390000E4B00221A6000F037FC0346002B05D0CC
:1033A000012220210A4804F0C3F804E00022202171
:1033B000074804F0BDF8FEF7CBFB00F0A5F8FEF7D8
:1033C00047F8C6E71C0B00202E0B0020F001002060
:1033D0000010024080B594B000AF07F12003302206
:1033E0000021184608F01DFF07F10C0300221A60A7
:1033F0005A609A60DA601A610023BB60284B1B6C2C
:10340000274A43F080531364254B1B6C03F0805311
:10341000BB60BB6800237B60224B1B68214A43F4DE
:10342000804313601F4B1B6803F480437B607B6801
:1034300002233B620123FB6210233B630223BB6335
:103440000023FB6308233B64A8237B640223BB6443
:103450000423FB6407F12003184605F05DF80346DA
:10346000002B01D000F0E6F80F23FB6002233B6144
:1034700000237B614FF4A053BB614FF4A053FB6169
:1034800007F10C030521184605F0BEFA0346002B90
:1034900001D000F0CFF800BF5037BD4680BD00BF5F
:1034A000003802400070004080B584B004AF01F0E5
:1034B00037F9FDF7A1FEFDF717FFFFF74DFB02F00F
:1034C00079FC322001F03AF902F092FD0020FFF77A
:1034D000B1F84FF4FC6300934FF49673BE22C821F9
:1034E0003220FFF7D9F80123029318230193002318
:1034F00000930023034AEB215A20FFF785FD00BF0C
:10350000BD4680BD70D4000880B500AF0D4B1B7860
:103510005A1C0D4B83FB0213D910D317C91A0B4643
:103520009B000B449B00D11ACAB2064B1A70054B84
:103530001B78002B03D11021044804F012F800BFBF
:1035400080BD00BFB40200206766666600100240BE
:10355000B0B5A4B006AF2D4B1B68002B52D100F0C4
:1035600053FB0346002B06D107F164032849184694
:1035700008F0F4FD05E007F164032649184608F059
:10358000EDFD00F017FB03467B6700F01FFBF0EE3C
:10359000407AFDEEE77A17EE903A3B671E4B1B68C8
:1035A000012B0FD01D4B1B7807F1640238460193A5
:1035B0003B6F00937B6F1A4908F0D0FD3B461846DD
:1035C00002F024FD144B1B68012B1BD1154B1B680B
:1035D000154A1268154909780C46104909780D46B4
:1035E00007F16401384604950394029201933B6FFE
:1035F00000937B6F0A460E4908F0B0FD3B46184623
:1036000002F004FD00BF7837BD46B0BDF8010020D0
:103610008CD40008C4D40008D0010020040000208D
:10362000CCD40008D4010020DC010020140B0020C1
:1036300014D5000880B400AF72B600BF00BFFDE72C
:1036400080B584B004AF01230293182301934FF691
:10365000FF7300934FF6FF73614A0A213C20FFF786
:10366000D3FC0023029310230193002300934FF611
:10367000FF735C4A3C212820FFF7C6FC5A4B1B68AD
:103680009AB210230293002301934FF6FF73009325
:1036900004233C217820FFF7BDF900230293102377
:1036A0000193002300934FF6FF73504A5A212820BC
:1036B000FFF7AAFC4E4B1B68002B0CD10023029392
:1036C00010230193002300934FF6FF73494A5A21B8
:1036D0007820FFF799FC464B1B68012B0CD1002387
:1036E000029310230193002300934FF6FF73424A85
:1036F0005A217820FFF788FC3D4B1B68022B0CD128
:103700000023029310230193002300934FF6FF73CD
:103710003A4A5A217820FFF777FC354B1B68032B78
:103720000CD10023029310230193002300934FF642
:10373000FF73334A5A217820FFF766FC0023029377
:1037400010230193002300934FF6FF732D4A782135
:103750002820FFF759FC2C4B1B68B3F57A7F0CD15E
:103760000023029310230193002300934FF6FF736D
:10377000264A78217820FFF747FC234B1B68B3F5D6
:10378000FA7F0CD1002302931023019300230093AE
:103790004FF6FF731E4A78217820FFF735FC1A4B4D
:1037A0001B68642B0CD10023029310230193002388
:1037B00000934FF6FF73174A78217820FFF724FC17
:1037C0000023029310230193002300934FF6FF730D
:1037D000114A96212820FFF717FC00BFBD4680BD87
:1037E00070D500087CD50008D401002088D50008D9
:1037F000D801002094D500089CD50008A4D5000865
:10380000ACD50008B4D5000800000020C0D50008E1
:10381000C8D50008D0D50008D8D5000880B582B03A
:1038200002AF4FF6FF730093C823F022002100205F
:10383000FEF732FF1F230093FA239622D2215A204B
:10384000FEF72AFF1F2300934FF4967396224FF43E
:1038500082715A20FEF720FF1F2300934FF49673C6
:1038600050224FF482711420FEF716FF1F2300939D
:103870004FF49673DC224FF48271A020FEF70CFF08
:1038800000BFBD4680BD000080B584B004AF0123F9
:103890000293182301934FF6FF7300934FF6FF73C3
:1038A0000B4ACD210020FFF7AFFB0A4B1B781A46CD
:1038B00018230293002301934FF6FF730093042310
:1038C000E6210020FFF7A6F800BFBD4680BD00BF7F
:1038D000E8D50008140B002080B584B004AF0123A4
:1038E0000293182301934FF6FF7300934FF6FF7373
:1038F000954A0A214620FFF787FB012302931823EC
:1039000001934FF6FF7300934FF6FF738F4ADC214C
:103910005020FFF779FB002302931023019300232B
:1039200000934FF6FF738A4A3C212820FFF76CFB77
:10393000884B1B689AB210230293002301934FF621
:10394000FF73009304233C217820FFF763F80023E2
:10395000029310230193002300934FF6FF737E4AD6
:103960005A212820FFF750FB7C4B1B68002B0CD101
:103970000023029310230193002300934FF6FF735B
:10398000774A5A217820FFF73FFB744B1B68012BC5
:103990000CD10023029310230193002300934FF6D0
:1039A000FF73704A5A217820FFF72EFB6B4B1B6880
:1039B000022B0CD1002302931023019300230093C8
:1039C0004FF6FF73684A5A217820FFF71DFB634BBF
:1039D0001B68032B0CD100230293102301930023B7
:1039E00000934FF6FF73614A5A217820FFF70CFBD2
:1039F0000023029310230193002300934FF6FF73DB
:103A00005B4A78212820FFF7FFFA5A4B1B68B3F571
:103A10007A7F0CD10023029310230193002300939B
:103A20004FF6FF73544A78217820FFF7EDFA514B97
:103A30001B68B3F5FA7F0CD1002302931023019386
:103A4000002300934FF6FF734C4A78217820FFF74C
:103A5000DBFA484B1B68642B0CD100230293102324
:103A60000193002300934FF6FF73454A7821782095
:103A7000FFF7CAFA00230293102301930023009357
:103A80004FF6FF733F4A96212820FFF7BDFA002327
:103A9000029310230193002300934FF6FF733A4AD9
:103AA000B4212820FFF7B0FA384B1B68384A82FB54
:103AB00003121A445211DB17D31A9AB2102302933D
:103AC000002301934FF6FF7300930223B4215A2081
:103AD000FEF7A0FF0023029310230193002300931D
:103AE0004FF6FF732B4AB4216E20FFF78DFA274B58
:103AF0001A68274B83FB021313445911D317C91AB1
:103B00000B461B015B1A9B00D11A8AB21023029349
:103B1000002301934FF6FF7300930223B421782012
:103B2000FEF778FF1C4B1B781A46182302930023DC
:103B300001934FF6FF7300930223DC219620FEF7DA
:103B400069FF00BFBD4680BDF0D50008E8D500087C
:103B50007CD50008D401002088D50008D8010020B9
:103B600094D500089CD50008A4D50008ACD5000861
:103B7000B4D5000800000020C0D50008C8D5000852
:103B8000D0D50008D8D50008FCD50008DC010020FD
:103B90008988888804D60008140B002080B400AF00
:103BA000034B9B881846BD465DF8047B704700BFF9
:103BB000B802002080B400AF034BDB881846BD4636
:103BC0005DF8047B704700BFB802002080B400AFEE
:103BD0000A4B1B8907EE903AF8EE677A9FED087A58
:103BE00067EE877A9FED077AC7EE876AF0EE667A0E
:103BF000B0EE670ABD465DF8047B7047B80200204E
:103C00000000A54300F07F4580B500AFFFF7C6FF79
:103C1000034607EE903AB8EE677ADFED086AC7EE22
:103C2000267AB6EE007AF4EEC77AF1EE10FA01DDEC
:103C3000012300E00023184680BD00BF00F07F454F
:103C400080B500AFFFF7B6FF034607EE903AF8EEF7
:103C5000677A9FED0D7AC7EE876A16EE900AFCF739
:103C60006BFC07A3D3E90023FCF74EFF0346002BB0
:103C700001D0012300E00023184680BDAFF300808F
:103C8000666666666666E63F00E07F4580B584B09E
:103C900002AF786039600123009305234FF4FC6282
:103CA00039687868FFF743F900BF0837BD4680BD23
:103CB00080B584B002AF786039600123009305239A
:103CC0004FF4784239687868FFF731F900BF083758
:103CD000BD4680BD80B584B002AF786039600123F5
:103CE0000093052348F21F4239687868FFF71FF9EF
:103CF00000BF0837BD4680BD80B584B002AF786094
:103D0000396001230093052348F23042396878680E
:103D1000FFF70DF900BF0837BD4680BD80B584B000
:103D200002AF786039600123009305234FF6FF72DC
:103D300039687868FFF7FBF800BF0837BD4680BDDB
:103D400080B582B000AF00237B608BE000233B6036
:103D500081E049497A6813469B0013449B003A6806
:103D6000134451F82330022B0FD17A6813469B007D
:103D700013445B00581D3A6813469B0013445B00D4
:103D800005331946FFF782FF62E03B497A68134624
:103D90009B0013449B003A68134451F82330042BD2
:103DA0000FD17A6813469B0013445B00581D3A6894
:103DB00013469B0013445B0005331946FFF78AFF47
:103DC00046E02D497A6813469B0013449B003A68ED
:103DD000134451F82330012B0FD17A6813469B000E
:103DE00013445B00581D3A6813469B0013445B0064
:103DF00005331946FFF75CFF2AE01F497A6813462E
:103E00009B0013449B003A68134451F82330032B62
:103E10000FD17A6813469B0013445B00581D3A6823
:103E200013469B0013445B0005331946FFF764FFFC
:103E30000EE07A6813469B0013445B00581D3A68F5
:103E400013469B0013445B0005331946FFF766FFDA
:103E50003B6801333B603B68132B7FF77AAF7B688D
:103E600001337B607B68172B7FF770AF00BF00BF0B
:103E70000837BD4680BD00BFC402002080B483B0B7
:103E800000AF00237B6022E000233B6019E015496E
:103E90007A6813469B0013449B003A68134451F818
:103EA0002330032B0AD10F497A6813469B00134431
:103EB0009B003A681344002241F823203B680133F9
:103EC0003B603B68132BE2DD7B6801337B607B68E2
:103ED000172BD9DD00BF00BF0C37BD465DF8047B52
:103EE000704700BFC402002080B483B000AF00233D
:103EF0007B6016E000233B600DE00F497A681346B3
:103F00009B0013449B003A681344002241F823208D
:103F10003B6801333B603B68132BEEDD7B6801336C
:103F20007B607B68172BE5DD00BF00BF0C37BD460B
:103F30005DF8047B704700BFC402002080B586B0E6
:103F400000AF634B1B68013B7B6114E0614A7B69F6
:103F500052F823205F497B69183351F823105E48DB
:103F600013469B0013449B000B44002240F823207F
:103F70007B69013B7B617B69002BE7DA554B1A6853
:103F8000544B196E544813469B0013449B000B443A
:103F9000002240F823204E4B1B68013B4D4A52F84B
:103FA00023304E4A13604A4B1B68013B494A183381
:103FB00052F823304A4A1360454B1B68013B454A7F
:103FC00052F82310474B1A68414B1B68013B0A44C7
:103FD000404941F823203E4B1B68013B3D4A1833C2
:103FE00052F823103F4B5A68394B1B68013B0A4477
:103FF0003849183341F82320354B1B68013B354ABB
:1040000052F82330384A1360314B1B68013B314A68
:10401000183352F82330344A53602D4B1B68023B4F
:104020003B6120E02B4A3B6952F82330BB60294AB0
:104030003B69183352F823307B60284B1A682549B6
:104040003B6941F82320264B1A6822493B69183303
:1040500041F82320214ABB681360214A7B68136022
:104060003B69013B3B613B69002BDBDA184B1B686A
:10407000023BFB6014E0174AFB6852F82320154905
:10408000FB68183351F82310134813469B00134460
:104090009B000B44022240F82320FB68013BFB609D
:1040A000FB68002BE7DA00F021FA00F0C9FA0E4BAA
:1040B0001A680D4B5968084813469B0013449B002F
:1040C0000B44042240F8232000BF1837BD4680BDB2
:1040D0001C000020440A0020C4020020040B002021
:1040E000080B0020200000200C0B002080B500AF42
:1040F000FFF7FAFE164B02221A60154B02221A65D0
:10410000144B00221A60134B00221A66114B012235
:104110005A60104B00225A660F4B02221A600F4B56
:1041200001221A600D4B00225A600D4B01221A60C9
:104130000C4B01221A600C4B01221A600B4B01221E
:104140001A600B4B00221A7000F014F800BF80BDFB
:10415000C4020020440A00201C000020200000208F
:10416000280000202C000020300000203400002017
:10417000140B002080B582B000AF172000F0A2F928
:104180007860132000F09EF9386007E0172000F0F7
:1041900099F97860132000F095F938600D497A6834
:1041A00013469B0013449B003A68134451F8233094
:1041B000022BEBD007497A6813469B0013449B00FF
:1041C0003A681344012241F8232000BF0837BD4656
:1041D00080BD00BFC402002080B584B000AF1720AE
:1041E00000F070F9F860132000F06CF9B86007E097
:1041F000172000F067F9F860132000F063F9B86049
:10420000AF49FA6813469B0013449B00BA681344F5
:1042100051F82330022BEBD0A949FA6813469B00D2
:1042200013449B00BA68134451F82330012BDFD0AC
:10423000FB685A1CA24913469B0013449B00BA68B2
:10424000134451F82330022B0CD0FB685A1C9C49B4
:1042500013469B0013449B00BA68134451F8233063
:10426000012B4ED1FB685A1E954913469B001344FF
:104270009B00BA68134451F82330022B0CD0FB6822
:104280005A1E8F4913469B0013449B00BA6813447F
:1042900051F82330012B34D1BB68591C8848FA6887
:1042A00013469B0013449B000B4450F82330022B11
:1042B0000CD0BB68591C8248FA6813469B00134413
:1042C0009B000B4450F82330012B1AD1BB68591EB8
:1042D0007B48FA6813469B0013449B000B4450F83C
:1042E0002330022B84D0BB68591E7548FA681346E8
:1042F0009B0013449B000B4450F82330012B3FF4E8
:1043000077AF6F49FA6813469B0013449B00BA6865
:104310001344032241F82320042000F0D3F838602E
:1043200000237B60C3E0042000F0CCF838603B68D9
:10433000013B032B00F2B28001A252F823F000BF30
:1043400051430008A7430008F94300084B44000804
:10435000FB685A1C5A4913469B0013449B00BA68D9
:10436000134451F82330022B00F09A80FB685A1C4A
:10437000534913469B0013449B00BA68134451F8F9
:104380002330012B00F08C80FB685A1C4C491346EB
:104390009B0013449B00BA681344032241F8232076
:1043A00001237B607CE0FB685A1E454913469B0055
:1043B00013449B00BA68134451F82330022B71D088
:1043C000FB685A1E3E4913469B0013449B00BA6883
:1043D000134451F82330012B64D0FB685A1E38492E
:1043E00013469B0013449B00BA681344032241F810
:1043F000232001237B6055E0BB68591C3048FA68D4
:1044000013469B0013449B000B4450F82330022BAF
:104410004AD0BB68591C2A48FA6813469B001344CB
:104420009B000B4450F82330012B3DD0BB68591C36
:104430002348FA6813469B0013449B000B44032255
:1044400040F8232001237B602EE0BB68591E1C48E6
:10445000FA6813469B0013449B000B4450F823302A
:10446000022B23D0BB68591E1548FA6813469B00DF
:1044700013449B000B4450F82330012B16D0BB682B
:10448000591E0F48FA6813469B0013449B000B44C7
:10449000032240F8232001237B6007E000BF06E0F1
:1044A00000BF04E000BF02E000BF00E000BF7B6887
:1044B000002B3FF438AF00BF00BF1037BD4680BDB2
:1044C000C402002080B584B000AF786007F046FDDC
:1044D00002467B68013392FBF3F101FB03F3D31A2D
:1044E000FB60FB6818461037BD4680BD80B400AF46
:1044F000234B1B68172B03DC214B1B68002B02DAB4
:10450000204B01221A601E4B5B68132B03DC1C4BF3
:104510005B68002B02DA1B4B01221A60184B1A68E9
:10452000174B5968184813469B0013449B000B44D3
:1045300050F82330022B02D1124B01221A60104B8B
:104540001A680F4B5968104813469B0013449B0090
:104550000B4450F82330032B02D10A4B01221A607E
:104560000A4B1B68002B05D1064B01221A60074B32
:10457000B4221A6000BFBD465DF8047B704700BFDF
:104580000C0B0020180B0020C402002008000020A3
:1045900080B400AF254B1B68002B0CD1244B5B680B
:1045A000002B08D1224B00221A60214B01225A60B5
:1045B0001E4B01221A601F4B1B68002B0DD11C4B98
:1045C0005B68002B09D11A4B00221A60184B4FF080
:1045D000FF325A60174B01221A60174B1B68002BE1
:1045E0000CD1134B1B68002B08D1114B01221A6010
:1045F0000F4B00225A60104B01221A600F4B1B68B0
:10460000002B0DD10A4B1B68002B09D1084B4FF032
:10461000FF321A60064B00225A60084B01221A60D2
:1046200000BFBD465DF8047B704700BF2C00002032
:10463000200000202800002030000020340000204E
:1046400080B582B000AF314B1A68304B59683048A2
:1046500013469B0013449B000B4450F82330012B5E
:1046600050D12C4B1B780133DAB22A4B1A702A4BEB
:104670001B680133284A1360274B1B68013B7B6092
:1046800016E07B68013B254A52F8232023497B68CA
:1046900041F823207B68013B204A183352F823203D
:1046A0001E497B68183341F823207B68013B7B60FF
:1046B0007B68002BE5DC154B1B68184A1360134B15
:1046C0005B68164A136600233B6014E0134A3B689C
:1046D00052F8232011493B68183351F823100C4835
:1046E00013469B0013449B000B44022240F82320F6
:1046F0003B6801333B60084B1B683A689A42E5DB34
:10470000FFF738FD00BF0837BD4680BD0C0B002009
:10471000C4020020140B00201C000020440A0020CA
:1047200080B500AF034805F033FA034805F0C8F937
:1047300000BF80BDE40B00209C0B002080B483B040
:1047400000AF0346FB80084AFB881380064B1A889B
:10475000064B1A80064B00221A8000BF0C37BD465C
:104760005DF8047B704700BF200B00201E0B00206B
:104770001C0B002080B483B000AF0346FB80084AC6
:10478000FB881380064B1A88064B1A80064B0022C2
:104790001A8000BF0C37BD465DF8047B704700BF30
:1047A000260B0020240B0020220B002080B483B0B5
:1047B00000AF0346FB80084AFB881380064B1A882B
:1047C000064B1A80064B00221A8000BF0C37BD46EC
:1047D0005DF8047B704700BF2C0B00202A0B0020E3
:1047E000280B002080B483B000AF0346FB80084A4A
:1047F000FB881380064B1A88064B1A80064B002252
:104800001A8000BF0C37BD465DF8047B704700BFBF
:10481000320B0020300B00202E0B002080B483B020
:1048200000AF0346FB80084AFB881380064B1A88BA
:10483000064B1A80064B00221A8000BF0C37BD467B
:104840005DF8047B704700BF3E0B00203C0B00204E
:104850003A0B002080B582B000AF78607B681B689F
:10486000B3F1804F7FD1424B1B88002B10D0404BBF
:104870001B88013B9AB23E4B1A803D4B1B88002B94
:1048800006D13C4B01221A803B4B1A88384B1A80C8
:104890003A4B1B88002B10D0384B1B88013B9AB237
:1048A000364B1A80354B1B88002B06D1344B012226
:1048B0001A80344B1A88314B1A80334B1B88002BDB
:1048C00010D0314B1B88013B9AB22F4B1A802E4BD4
:1048D0001B88002B06D12D4B01221A802C4B1A88E5
:1048E000294B1A802B4B1B88002B10D0294B1B887F
:1048F000013B9AB2274B1A80264B1B88002B06D10E
:10490000254B01221A80254B1A88224B1A80244BF2
:104910001B88002B10D0224B1B88013B9AB2204BE6
:104920001A801F4B1B88002B06D11E4B01221A80B8
:104930001D4B1A881A4B1A801C4B1B88002B10D059
:104940001A4B1B88013B9AB2184B1A80174B1B88D5
:10495000002B06D1164B01221A80164B1A88134BD6
:104960001A80FEF7FFFB00BF0837BD4680BD00BFC1
:104970001E0B00201C0B0020200B0020240B00200D
:10498000220B0020260B00202A0B0020280B0020E1
:104990002C0B0020300B00202E0B0020320B0020AF
:1049A000360B0020340B0020380B00203C0B00207D
:1049B0003A0B00203E0B002080B483B000AF0346CA
:1049C000FB80094B1B6800225A6200BF064B1B6824
:1049D0005A6AFB889A42F9D300BF00BF0C37BD4624
:1049E0005DF8047B704700BF9C0B002080B500AFD2
:1049F000174B184A1A60164B4FF482725A60144BC8
:104A000000229A60124B0022DA60114B00221A61D8
:104A10000F4B00225A610E4B4FF400729A610C4BFF
:104A20000022DA610A4B00221A62094B00225A6204
:104A3000074B00229A62064B0A22DA62044804F00D
:104A400003FA0346002B01D0FEF7F4FD00BF80BD42
:104A5000400B00200030014080B58AB000AF786084
:104A600007F1140300221A605A609A60DA601A6132
:104A70007B681B68194A93422BD100233B61184B7A
:104A80005B6C174A43F480535364154B5B6C03F41F
:104A900080533B613B690023FB60114B1B6B104A49
:104AA00043F0020313630E4B1B6B03F00203FB6026
:104AB000FB6838237B610223BB610023FB61032376
:104AC0003B6205237B6207F114031946054802F097
:104AD0007BFB00BF2837BD4680BD00BF00300140D2
:104AE000003802400004024080B483B000AF0023CD
:104AF0007B60104B5B6C0F4A43F4804353640D4B57
:104B00005B6C03F480437B607B6800233B60094B54
:104B10001B6C084A43F080531364064B1B6C03F074
:104B200080533B603B6800BF0C37BD465DF8047B9B
:104B3000704700BF0038024080B400AF00BFFDE7FF
:104B400080B400AF00BFFDE780B400AF00BFFDE759
:104B500080B400AF00BFFDE780B400AF00BFFDE749
:104B600080B400AF00BFBD465DF8047B704780B4E1
:104B700000AF00BFBD465DF8047B704780B400AF56
:104B800000BFBD465DF8047B704780B500AF01F003
:104B9000E7FB00BF80BD000080B500AF024805F014
:104BA00089F900BF80BD00BFE40B002080B500AFD5
:104BB000024806F0E9F800BF80BD00BFE00D00200C
:104BC00080B500AF024806F0DFF800BF80BD00BF2F
:104BD000240E002080B500AF024802F0B9F800BFF3
:104BE00080BD00BF4C01002080B400AF01231846F7
:104BF000BD465DF8047B704780B582B000AF786039
:104C0000396007F06DFB034616221A604FF0FF3340
:104C100018460837BD4680BD80B582B000AF7860C9
:104C20004FF0FF317868FFF7E7FF00BFFDE780B581
:104C300086B000AFF860B9607A6000237B610AE05B
:104C4000AFF300800146BB685A1CBA60CAB21A7042
:104C50007B6901337B617A697B689A42F0DB7B6810
:104C600018461837BD4680BD80B586B000AFF860E5
:104C7000B9607A6000237B6109E0BB685A1CBA60A6
:104C80001B781846AFF300807B6901337B617A693A
:104C90007B689A42F1DB7B6818461837BD4680BDB9
:104CA00080B483B000AF78604FF0FF3318460C3704
:104CB000BD465DF8047B704780B483B000AF786078
:104CC00039603B684FF400525A60002318460C3795
:104CD000BD465DF8047B704780B483B000AF786058
:104CE000012318460C37BD465DF8047B704780B43D
:104CF00085B000AFF860B9607A60002318461437B9
:104D0000BD465DF8047B704780B586B000AF786023
:104D1000144A154BD31A7B617B693B61134B1B68AB
:104D2000002B02D1114B124A1A60104B1A687B6893
:104D300013443A699A4207D207F0D2FA03460C228A
:104D40001A604FF0FF3309E0084B1B68FB60074B0C
:104D50001A687B681344054A1360FB6818461837C5
:104D6000BD4680BD0000022000040000980B00201A
:104D7000B80F002080B400AF064BD3F88830054A46
:104D800043F47003C2F8883000BFBD465DF8047B71
:104D9000704700BF00ED00E080B586B000AF07F1BE
:104DA000080300221A605A609A60DA603B460022CB
:104DB0001A605A601E4B1F4A1A601D4B53225A60DC
:104DC0001B4B00229A601A4B4FF6FF72DA60184BA9
:104DD00000221A61164B00225A61154B00229A617B
:104DE000134804F01DFE0346002B01D0FEF722FC01
:104DF0004FF48053BB6007F1080319460C4805F0D7
:104E000023FA0346002B01D0FEF714FC00233B607D
:104E100000237B603B461946054805F015FE034616
:104E2000002B01D0FEF706FC00BF1837BD4680BD41
:104E30009C0B00200000014080B586B000AF07F158
:104E4000080300221A605A609A60DA603B4600222A
:104E50001A605A601D4B4FF080421A601B4B40F2A3
:104E600047325A60194B00229A60184B6322DA606D
:104E7000164B00221A61154B00229A61134804F068
:104E8000CFFD0346002B01D0FEF7D4FB4FF4805337
:104E9000BB6007F1080319460C4805F0D5F9034635
:104EA000002B01D0FEF7C6FB00233B6000237B6094
:104EB0003B461946054805F0C7FD0346002B01D0C7
:104EC000FEF7B8FB00BF1837BD4680BDE40B0020DD
:104ED00080B588B000AF3B1D00221A605A609A600E
:104EE000DA601A615A619A611E4B1F4A1A601D4BA3
:104EF00040F247325A601B4B00229A60194B6322E2
:104F0000DA60184B00221A61164B00229A6115488C
:104F100004F086FD0346002B01D0FEF78BFB114801
:104F200004F0A6FE0346002B01D0FEF783FB6023AE
:104F30007B600023BB600023FB6000237B613B1D83
:104F400000221946074805F0BDF80346002B01D0A2
:104F5000FEF770FB034800F05BF800BF2037BD464A
:104F600080BD00BF2C0C0020001C004080B586B026
:104F700000AF78607B681B68224A93420ED1002301
:104F80007B61214B5B6C204A43F0010353641E4B51
:104F90005B6C03F001037B617B692EE07B681B681F
:104FA000B3F1804F16D100233B61174B1B6C164A9F
:104FB00043F001031364144B1B6C03F001033B61CA
:104FC0003B69002200211C2001F04BFD1C2001F058
:104FD00064FD12E07B681B680C4A93420DD10023EC
:104FE000FB60094B1B6C084A43F080031364064BBB
:104FF0001B6C03F08003FB60FB6800BF1837BD46E5
:1050000080BD00BF0000014000380240001C00408D
:1050100080B588B000AF786007F10C0300221A60F9
:105020005A609A60DA601A617B681B68124A934280
:105030001ED10023BB60114B1B6B104A43F02003B1
:1050400013630E4B1B6B03F02003BB60BB684FF474
:105050008073FB6002233B6100237B610023BB6103
:105060000923FB6107F10C031946054802F0ACF86F
:1050700000BF2037BD4680BD001C00400038024004
:105080000014024080B584B000AF0346FB710023DA
:10509000FB730023FB7325E097F90730002B06DA3A
:1050A00001224FF40071134802F042FA05E0002299
:1050B0004FF400710F4802F03BFAFB795B00FB7183
:1050C00000224FF480710C4802F032FA0120FFF701
:1050D00073FC01224FF48071074802F029FAFB7B30
:1050E0000133FB73FB7B072BD6D900BF00BF103702
:1050F000BD4680BD000802400018024080B584B063
:1051000000AF0346FB710023FB730023BB81002229
:105110004FF480712F4802F00BFA00224FF4007117
:105120002D4802F005FA002280212A4802F000FAF8
:10513000FB791846FFF7A6FF0620FFF73DFC00228B
:105140004FF48071234802F0F3F90120FFF734FC9B
:1051500001224FF480711F4802F0EAF90120FFF7A5
:105160002BFC00224FF480711A4802F0E1F9002371
:10517000FB731FE0BB895B00BB8100224FF4807191
:10518000144802F0D5F90120FFF716FC01224FF474
:105190008071104802F0CCF94FF480510E4802F0B3
:1051A000AFF90346002B02D0BB890133BB81FB7BE7
:1051B0000133FB73FB7B0F2BDCD9BB891B09BB8144
:1051C00001228021034802F0B3F9BB891846103749
:1051D000BD4680BD001802400008024090B589B06D
:1051E00000AF0346FB7100237B830023FB830EE0AB
:1051F000FC8BFB791846FFF781FF03461A466300D4
:1052000020333B4423F8142CFB8B0133FB83FB8BB3
:10521000042BEDD90023FB8335E0FB8B0133BB83EB
:105220002BE0FB8B5B0020333B4433F8142CBB8B0F
:105230005B0020333B4433F8143C9A421AD9FB8B71
:105240005B0020333B4433F8143C3B83BB8BFA8B2D
:105250005B0020333B4433F8141C530020333B44A1
:105260000A4623F8142CBB8B5B0020333B443A8B5B
:1052700023F8142CBB8B0133BB83BB8B042BD0D9FD
:10528000FB8B0133FB83FB8B032BC6D900237B8372
:105290000123FB830BE0FB8B5B0020333B4433F8A3
:1052A000142C7B8B13447B83FB8B0133FB83FB8BA5
:1052B000032BF0D97B8B054AA2FB03235B083B83BE
:1052C0003B8B18462437BD4690BD00BFABAAAAAAA7
:1052D00080B584B000AF786039600C4B1B781846FD
:1052E000FFF77CFF0346FB81094B1B781846FFF74D
:1052F00075FF0346BB817B68FA891A803B68BA89CF
:105300001A80012318461037BD4680BD700000206A
:105310007100002080B586B000AF7860396007F179
:10532000120207F1140311461846FFF7D1FF034696
:10533000FB75FB7D002B01D1002349E007F10E0234
:1053400007F1100311461846FFF7C2FF0346FB752D
:10535000FB7D002B01D100233AE03A8ABB8A9A42B6
:1053600004D83B8A6333BA8A934208DABA8A3B8A02
:105370009A422CD8BB8A63333A8A934227DBFA8954
:105380007B8A9A4204D8FB8963337A8A934208DA8B
:105390007A8AFB899A421AD87B8A6333FA899342C4
:1053A00015DBBB8A1A463B8A1344DA0F13445B10A1
:1053B0009AB27B681A807B8A1A46FB891344DA0FFB
:1053C00013445B109AB23B681A80012300E000236B
:1053D00018461837BD4680BD90B585B002AF03466C
:1053E000FB800B46BB8013467B80FB880C3B98B24E
:1053F000FB880D339AB2BC88B9887B88009323461A
:10540000FDF797F9BB880C3B99B2BB880D339CB272
:10541000FA88F8887B8800932346FDF78AF9FB8891
:10542000013398B2BB8801339BB27A881946FDF7E5
:1054300069F9FB88013B98B2BB8801339BB27A883B
:105440001946FDF75FF9FB88013398B2BB88013B31
:105450009BB27A881946FDF755F9FB88013B98B253
:10546000BB88013B9BB27A881946FDF74BF9F88857
:10547000B9887A88002300930623FDF758FD00BF02
:105480000C37BD4690BD000080B582B000AF03462A
:10549000FB714FF48071434802F032F80346002B51
:1054A00057D1FB79002B04D03F494048FFF732FF2A
:1054B0003CE03D493D48FFF72DFF0346002B35D02A
:1054C0003B4B93ED097A3A4B9B8907EE903AF8EE05
:1054D000E77A27EE277A364BB3F92C3007EE903A6D
:1054E000F8EEE77A77EE277AFCEEE77A17EE903A55
:1054F0009AB22F4B9A812E4B93ED0A7A2C4BDB8A72
:1055000007EE903AF8EEE77A27EE277A284BB3F9C0
:105510002E3007EE903AF8EEE77A77EE277AFCEE37
:10552000E77A17EE903A9AB2214BDA82204B93F841
:1055300020305BB2002B2ADB1D4BC02283F82020D9
:105540001B4B9A891A4B9A82194BDA8A184BDA83C9
:105550001DE0174B93F820305BB2002B09DA144B97
:1055600093F8203003F07F03DAB2114B83F8202048
:105570000DE00F4B00229A820D4B0022DA830C4B78
:105580004FF6FF729A810A4B4FF6FF72DA82084B90
:1055900093F8203023F07F03DBB218460837BD466E
:1055A00080BD00BF000802405200002048000020DB
:1055B0003C00002080B500AF0E2205490020FBF71B
:1055C000FBFD00210E20FBF797FD00BF80BD00BF53
:1055D0006000002080B582B000AF0023FB710E2078
:1055E000FBF76EFD0346FB71FB79002B06D10E2203
:1055F00005490020FBF7C1FD012300E00023184608
:105600000837BD4680BD00BF6000002000000000DC
:1056100080B58EB004AF002387F82730002387F8C9
:1056200027305F4B1A885E4B5B884FF6FF71009105
:1056300000210020FDF730F800230293102301938E
:105640004FF6FF7300934FF47843564A2821052004
:10565000FDF7DAFC00230293102301934FF6FF734A
:1056600000934FF47843504A41210520FDF7CCFCCC
:1056700000230293102301934FF6FF7300934FF41E
:1056800078434A4A5A210520FDF7BEFC4FF4784280
:1056900014211420FFF7A0FE454B002283F82020A0
:1056A000434B4FF000025A62322000F079FE404B2B
:1056B0005B68012098473E4B93F8203003F0C0030D
:1056C000402BF1D13A4B93F8203023F04003DAB26B
:1056D000374B83F8202097F82730354A92899B0072
:1056E00028333B4423F8282C97F82730304AD28AB5
:1056F0009B0028333B4423F8262C97F827300133AE
:1057000087F8273097F82730013B032BCCD801A22C
:1057100052F823F025570008475700087157000832
:10572000B55700084FF6FF7214211420FFF754FEFE
:105730001B4B1B88143B9BB24FF478421421184634
:10574000FFF74AFE19E3164B1B88143B9BB24FF63A
:10575000FF7214211846FFF73FFE114B5B88143B84
:105760009BB24FF4784219461420FFF735FE04E34C
:105770000B4B5B88143B9BB24FF6FF72194614200B
:10578000FFF72AFE064B1B88143B98B2044B5B883C
:10579000143B9BB24FF478421946FFF71DFEECE232
:1057A000A802002008D6000824D600083CD600082D
:1057B0003C0000203B881A46BB88D31A002BB8BF98
:1057C0005B423B627B881A46FB88D31A002BB8BF2A
:1057D0005B42FB613B6A03FB03F33B62FB6903FB38
:1057E00003F3FB613A6AFB6913441846FAF782FE39
:1057F00002460B4643EC102B07F0AEFC53EC102B8B
:1058000010461946FBF7A0F903467B833B891A46ED
:10581000BB89D31A002BB8BF5B423B627B891A4617
:10582000FB89D31A002BB8BF5B42FB613B6A03FBC9
:1058300003F33B62FB6903FB03F3FB613A6AFB6919
:1058400013441846FAF756FE02460B4643EC102B5B
:1058500007F082FC53EC102B10461946FBF774F945
:1058600003463B837B8B07EE903AB8EE677A3B8B1F
:1058700007EE903AF8EEE77AC7EE276A16EE900A3E
:10588000FAF75AFE02460B46C7E9042384A3D3E97C
:105890000023D7E90401FBF719F90346002B0FD1C8
:1058A00081A3D3E90023D7E90401FBF72DF90346CF
:1058B000002B05D17B8B002B02D03B8B002B36D1EC
:1058C000002387F827307A4B1B88143B98B2784B1B
:1058D0005B88143B9BB24FF6FF721946FFF77CFDC5
:1058E0004FF4784214211420FFF776FD0023029331
:1058F000102301934FF6FF7300934FF478436D4AE2
:1059000028210520FDF780FB00230293102301933B
:105910004FF6FF7300934FF47843674A3C2105200C
:10592000FDF772FB4FF47A7000F03AFD25E23B88F8
:105930001A463B89D31A002BB8BF5B423B627B8877
:105940001A467B89D31A002BB8BF5B42FB613B6AC6
:1059500003FB03F33B62FB6903FB03F3FB613A6A5E
:10596000FB6913441846FAF7C5FD02460B4643ECA3
:10597000102B07F0F1FB53EC102B10461946FBF7E8
:10598000E3F803467B83BB881A46BB89D31A002BF6
:10599000B8BF5B423B62FB881A46FB89D31A002BD7
:1059A000B8BF5B42FB613B6A03FB03F33B62FB69ED
:1059B00003FB03F3FB613A6AFB6913441846FAF7E9
:1059C00099FD02460B4643EC102B07F0C5FB53EC48
:1059D000102B10461946FBF7B7F803463B837B8B29
:1059E00007EE903AB8EE677A3B8B07EE903AF8EE06
:1059F000E77AC7EE276A16EE900AFAF79DFD02468F
:105A00000B46C7E9042326A3D3E90023D7E9040101
:105A1000FBF75CF80346002B09D123A3D3E900234D
:105A2000D7E90401FBF770F80346002B46D00023AA
:105A300087F827301E4B1B88143B98B21C4B5B88A1
:105A4000143B9BB24FF6FF721946FFF7C5FC4FF4AB
:105A5000784214211420FFF7BFFC00230293102387
:105A600001934FF6FF7300934FF47843114A2821B6
:105A70000520FDF7C9FA00230293102301934FF686
:105A8000FF7300934FF478430B4A3C210520FDF748
:105A9000BBFA4FF47A7000F083FC6EE1AFF3008044
:105AA000666666666666EE3FCDCCCCCCCCCCF03F6D
:105AB000A802002050D6000870D60008BB881A46FD
:105AC0003B89D31A002BB8BF5B423B62FB881A4666
:105AD0007B89D31A002BB8BF5B42FB613B6A03FB97
